{
  "contractName": "Color",
  "abi": [
    {
      "inputs": [],
      "stateMutability": "nonpayable",
      "type": "constructor"
    },
    {
      "anonymous": false,
      "inputs": [
        {
          "indexed": true,
          "internalType": "address",
          "name": "owner",
          "type": "address"
        },
        {
          "indexed": true,
          "internalType": "address",
          "name": "approved",
          "type": "address"
        },
        {
          "indexed": true,
          "internalType": "uint256",
          "name": "tokenId",
          "type": "uint256"
        }
      ],
      "name": "Approval",
      "type": "event"
    },
    {
      "anonymous": false,
      "inputs": [
        {
          "indexed": true,
          "internalType": "address",
          "name": "owner",
          "type": "address"
        },
        {
          "indexed": true,
          "internalType": "address",
          "name": "operator",
          "type": "address"
        },
        {
          "indexed": false,
          "internalType": "bool",
          "name": "approved",
          "type": "bool"
        }
      ],
      "name": "ApprovalForAll",
      "type": "event"
    },
    {
      "anonymous": false,
      "inputs": [
        {
          "indexed": true,
          "internalType": "address",
          "name": "from",
          "type": "address"
        },
        {
          "indexed": true,
          "internalType": "address",
          "name": "to",
          "type": "address"
        },
        {
          "indexed": true,
          "internalType": "uint256",
          "name": "tokenId",
          "type": "uint256"
        }
      ],
      "name": "Transfer",
      "type": "event"
    },
    {
      "inputs": [],
      "name": "_id",
      "outputs": [
        {
          "internalType": "uint256",
          "name": "",
          "type": "uint256"
        }
      ],
      "stateMutability": "view",
      "type": "function",
      "constant": true
    },
    {
      "inputs": [
        {
          "internalType": "address",
          "name": "to",
          "type": "address"
        },
        {
          "internalType": "uint256",
          "name": "tokenId",
          "type": "uint256"
        }
      ],
      "name": "approve",
      "outputs": [],
      "stateMutability": "nonpayable",
      "type": "function"
    },
    {
      "inputs": [
        {
          "internalType": "address",
          "name": "owner",
          "type": "address"
        }
      ],
      "name": "balanceOf",
      "outputs": [
        {
          "internalType": "uint256",
          "name": "",
          "type": "uint256"
        }
      ],
      "stateMutability": "view",
      "type": "function",
      "constant": true
    },
    {
      "inputs": [
        {
          "internalType": "uint256",
          "name": "",
          "type": "uint256"
        }
      ],
      "name": "colors",
      "outputs": [
        {
          "internalType": "string",
          "name": "",
          "type": "string"
        }
      ],
      "stateMutability": "view",
      "type": "function",
      "constant": true
    },
    {
      "inputs": [
        {
          "internalType": "uint256",
          "name": "tokenId",
          "type": "uint256"
        }
      ],
      "name": "getApproved",
      "outputs": [
        {
          "internalType": "address",
          "name": "",
          "type": "address"
        }
      ],
      "stateMutability": "view",
      "type": "function",
      "constant": true
    },
    {
      "inputs": [
        {
          "internalType": "address",
          "name": "owner",
          "type": "address"
        },
        {
          "internalType": "address",
          "name": "operator",
          "type": "address"
        }
      ],
      "name": "isApprovedForAll",
      "outputs": [
        {
          "internalType": "bool",
          "name": "",
          "type": "bool"
        }
      ],
      "stateMutability": "view",
      "type": "function",
      "constant": true
    },
    {
      "inputs": [],
      "name": "name",
      "outputs": [
        {
          "internalType": "string",
          "name": "",
          "type": "string"
        }
      ],
      "stateMutability": "view",
      "type": "function",
      "constant": true
    },
    {
      "inputs": [
        {
          "internalType": "uint256",
          "name": "tokenId",
          "type": "uint256"
        }
      ],
      "name": "ownerOf",
      "outputs": [
        {
          "internalType": "address",
          "name": "",
          "type": "address"
        }
      ],
      "stateMutability": "view",
      "type": "function",
      "constant": true
    },
    {
      "inputs": [
        {
          "internalType": "address",
          "name": "from",
          "type": "address"
        },
        {
          "internalType": "address",
          "name": "to",
          "type": "address"
        },
        {
          "internalType": "uint256",
          "name": "tokenId",
          "type": "uint256"
        }
      ],
      "name": "safeTransferFrom",
      "outputs": [],
      "stateMutability": "nonpayable",
      "type": "function"
    },
    {
      "inputs": [
        {
          "internalType": "address",
          "name": "from",
          "type": "address"
        },
        {
          "internalType": "address",
          "name": "to",
          "type": "address"
        },
        {
          "internalType": "uint256",
          "name": "tokenId",
          "type": "uint256"
        },
        {
          "internalType": "bytes",
          "name": "_data",
          "type": "bytes"
        }
      ],
      "name": "safeTransferFrom",
      "outputs": [],
      "stateMutability": "nonpayable",
      "type": "function"
    },
    {
      "inputs": [
        {
          "internalType": "address",
          "name": "operator",
          "type": "address"
        },
        {
          "internalType": "bool",
          "name": "approved",
          "type": "bool"
        }
      ],
      "name": "setApprovalForAll",
      "outputs": [],
      "stateMutability": "nonpayable",
      "type": "function"
    },
    {
      "inputs": [],
      "name": "symbol",
      "outputs": [
        {
          "internalType": "string",
          "name": "",
          "type": "string"
        }
      ],
      "stateMutability": "view",
      "type": "function",
      "constant": true
    },
    {
      "inputs": [
        {
          "internalType": "uint256",
          "name": "index",
          "type": "uint256"
        }
      ],
      "name": "tokenByIndex",
      "outputs": [
        {
          "internalType": "uint256",
          "name": "",
          "type": "uint256"
        }
      ],
      "stateMutability": "view",
      "type": "function",
      "constant": true
    },
    {
      "inputs": [
        {
          "internalType": "address",
          "name": "owner",
          "type": "address"
        },
        {
          "internalType": "uint256",
          "name": "index",
          "type": "uint256"
        }
      ],
      "name": "tokenOfOwnerByIndex",
      "outputs": [
        {
          "internalType": "uint256",
          "name": "",
          "type": "uint256"
        }
      ],
      "stateMutability": "view",
      "type": "function",
      "constant": true
    },
    {
      "inputs": [
        {
          "internalType": "uint256",
          "name": "tokenId",
          "type": "uint256"
        }
      ],
      "name": "tokenURI",
      "outputs": [
        {
          "internalType": "string",
          "name": "",
          "type": "string"
        }
      ],
      "stateMutability": "view",
      "type": "function",
      "constant": true
    },
    {
      "inputs": [
        {
          "internalType": "address",
          "name": "from",
          "type": "address"
        },
        {
          "internalType": "address",
          "name": "to",
          "type": "address"
        },
        {
          "internalType": "uint256",
          "name": "tokenId",
          "type": "uint256"
        }
      ],
      "name": "transferFrom",
      "outputs": [],
      "stateMutability": "nonpayable",
      "type": "function"
    },
    {
      "inputs": [
        {
          "internalType": "string",
          "name": "_color",
          "type": "string"
        }
      ],
      "name": "mint",
      "outputs": [],
      "stateMutability": "nonpayable",
      "type": "function"
    },
    {
      "inputs": [
        {
          "internalType": "bytes4",
          "name": "interfaceId",
          "type": "bytes4"
        }
      ],
      "name": "supportsInterface",
      "outputs": [
        {
          "internalType": "bool",
          "name": "",
          "type": "bool"
        }
      ],
      "stateMutability": "view",
      "type": "function",
      "constant": true
    },
    {
      "inputs": [],
      "name": "totalSupply",
      "outputs": [
        {
          "internalType": "uint256",
          "name": "",
          "type": "uint256"
        }
      ],
      "stateMutability": "view",
      "type": "function",
      "constant": true
    }
  ],
  "bytecode": "0x60806040523480156200001157600080fd5b506040518060400160405280600581526020017f436f6c6f720000000000000000000000000000000000000000000000000000008152506040518060400160405280600681526020017f434f4c4f525a0000000000000000000000000000000000000000000000000000815250816000908051906020019062000096929190620000b8565b508060019080519060200190620000af929190620000b8565b505050620001cd565b828054620000c69062000197565b90600052602060002090601f016020900481019282620000ea576000855562000136565b82601f106200010557805160ff191683800117855562000136565b8280016001018555821562000136579182015b828111156200013557825182559160200191906001019062000118565b5b50905062000145919062000149565b5090565b5b80821115620001645760008160009055506001016200014a565b5090565b7f4e487b7100000000000000000000000000000000000000000000000000000000600052602260045260246000fd5b60006002820490506001821680620001b057607f821691505b60208210811415620001c757620001c662000168565b5b50919050565b612f4b80620001dd6000396000f3fe608060405234801561001057600080fd5b50600436106101215760003560e01c80634f6ccce7116100ad578063b88d4fde11610071578063b88d4fde1461032e578063bd11f69d1461034a578063c87b56dd1461037a578063d85d3d27146103aa578063e985e9c5146103c657610121565b80634f6ccce7146102645780636352211e1461029457806370a08231146102c457806395d89b41146102f4578063a22cb4651461031257610121565b8063095ea7b3116100f4578063095ea7b3146101c257806318160ddd146101de57806323b872dd146101fc5780632f745c591461021857806342842e0e1461024857610121565b806301ffc9a714610126578063051802371461015657806306fdde0314610174578063081812fc14610192575b600080fd5b610140600480360381019061013b9190611d52565b6103f6565b60405161014d9190611d9a565b60405180910390f35b61015e610408565b60405161016b9190611dce565b60405180910390f35b61017c61040e565b6040516101899190611e82565b60405180910390f35b6101ac60048036038101906101a79190611ed0565b6104a0565b6040516101b99190611f3e565b60405180910390f35b6101dc60048036038101906101d79190611f85565b610525565b005b6101e661063d565b6040516101f39190611dce565b60405180910390f35b61021660048036038101906102119190611fc5565b610647565b005b610232600480360381019061022d9190611f85565b6106a7565b60405161023f9190611dce565b60405180910390f35b610262600480360381019061025d9190611fc5565b61074c565b005b61027e60048036038101906102799190611ed0565b61076c565b60405161028b9190611dce565b60405180910390f35b6102ae60048036038101906102a99190611ed0565b6107dd565b6040516102bb9190611f3e565b60405180910390f35b6102de60048036038101906102d99190612018565b61088f565b6040516102eb9190611dce565b60405180910390f35b6102fc610947565b6040516103099190611e82565b60405180910390f35b61032c60048036038101906103279190612071565b6109d9565b005b610348600480360381019061034391906121e6565b6109ef565b005b610364600480360381019061035f9190611ed0565b610a51565b6040516103719190611e82565b60405180910390f35b610394600480360381019061038f9190611ed0565b610afd565b6040516103a19190611e82565b60405180910390f35b6103c460048036038101906103bf919061230a565b610ba4565b005b6103e060048036038101906103db9190612353565b610c6a565b6040516103ed9190611d9a565b60405180910390f35b600061040182610cfe565b9050919050565b600b5481565b60606000805461041d906123c2565b80601f0160208091040260200160405190810160405280929190818152602001828054610449906123c2565b80156104965780601f1061046b57610100808354040283529160200191610496565b820191906000526020600020905b81548152906001019060200180831161047957829003601f168201915b5050505050905090565b60006104ab82610d78565b6104ea576040517f08c379a00000000000000000000000000000000000000000000000000000000081526004016104e190612466565b60405180910390fd5b6004600083815260200190815260200160002060009054906101000a900473ffffffffffffffffffffffffffffffffffffffff169050919050565b6000610530826107dd565b90508073ffffffffffffffffffffffffffffffffffffffff168373ffffffffffffffffffffffffffffffffffffffff1614156105a1576040517f08c379a0000000000000000000000000000000000000000000000000000000008152600401610598906124f8565b60405180910390fd5b8073ffffffffffffffffffffffffffffffffffffffff166105c0610de4565b73ffffffffffffffffffffffffffffffffffffffff1614806105ef57506105ee816105e9610de4565b610c6a565b5b61062e576040517f08c379a00000000000000000000000000000000000000000000000000000000081526004016106259061258a565b60405180910390fd5b6106388383610dec565b505050565b6000600b54905090565b610658610652610de4565b82610ea5565b610697576040517f08c379a000000000000000000000000000000000000000000000000000000000815260040161068e9061261c565b60405180910390fd5b6106a2838383610f83565b505050565b60006106b28361088f565b82106106f3576040517f08c379a00000000000000000000000000000000000000000000000000000000081526004016106ea906126ae565b60405180910390fd5b600660008473ffffffffffffffffffffffffffffffffffffffff1673ffffffffffffffffffffffffffffffffffffffff168152602001908152602001600020600083815260200190815260200160002054905092915050565b610767838383604051806020016040528060008152506109ef565b505050565b60006107766111df565b82106107b7576040517f08c379a00000000000000000000000000000000000000000000000000000000081526004016107ae90612740565b60405180910390fd5b600882815481106107cb576107ca612760565b5b90600052602060002001549050919050565b6000806002600084815260200190815260200160002060009054906101000a900473ffffffffffffffffffffffffffffffffffffffff169050600073ffffffffffffffffffffffffffffffffffffffff168173ffffffffffffffffffffffffffffffffffffffff161415610886576040517f08c379a000000000000000000000000000000000000000000000000000000000815260040161087d90612801565b60405180910390fd5b80915050919050565b60008073ffffffffffffffffffffffffffffffffffffffff168273ffffffffffffffffffffffffffffffffffffffff161415610900576040517f08c379a00000000000000000000000000000000000000000000000000000000081526004016108f790612893565b60405180910390fd5b600360008373ffffffffffffffffffffffffffffffffffffffff1673ffffffffffffffffffffffffffffffffffffffff168152602001908152602001600020549050919050565b606060018054610956906123c2565b80601f0160208091040260200160405190810160405280929190818152602001828054610982906123c2565b80156109cf5780601f106109a4576101008083540402835291602001916109cf565b820191906000526020600020905b8154815290600101906020018083116109b257829003601f168201915b5050505050905090565b6109eb6109e4610de4565b83836111ec565b5050565b610a006109fa610de4565b83610ea5565b610a3f576040517f08c379a0000000000000000000000000000000000000000000000000000000008152600401610a369061261c565b60405180910390fd5b610a4b84848484611359565b50505050565b600a8181548110610a6157600080fd5b906000526020600020016000915090508054610a7c906123c2565b80601f0160208091040260200160405190810160405280929190818152602001828054610aa8906123c2565b8015610af55780601f10610aca57610100808354040283529160200191610af5565b820191906000526020600020905b815481529060010190602001808311610ad857829003601f168201915b505050505081565b6060610b0882610d78565b610b47576040517f08c379a0000000000000000000000000000000000000000000000000000000008152600401610b3e90612925565b60405180910390fd5b6000610b516113b5565b90506000815111610b715760405180602001604052806000815250610b9c565b80610b7b846113cc565b604051602001610b8c929190612981565b6040516020818303038152906040525b915050919050565b600c81604051610bb491906129a5565b908152602001604051809103902060009054906101000a900460ff1615610bda57600080fd5b6007815114610be857600080fd5b600a81908060018154018082558091505060019003906000526020600020016000909190919091509080519060200190610c23929190611c43565b50600a80549050600b819055506001600c82604051610c4291906129a5565b908152602001604051809103902060006101000a81548160ff02191690831515021790555050565b6000600560008473ffffffffffffffffffffffffffffffffffffffff1673ffffffffffffffffffffffffffffffffffffffff16815260200190815260200160002060008373ffffffffffffffffffffffffffffffffffffffff1673ffffffffffffffffffffffffffffffffffffffff16815260200190815260200160002060009054906101000a900460ff16905092915050565b60007f780e9d63000000000000000000000000000000000000000000000000000000007bffffffffffffffffffffffffffffffffffffffffffffffffffffffff1916827bffffffffffffffffffffffffffffffffffffffffffffffffffffffff19161480610d715750610d708261152d565b5b9050919050565b60008073ffffffffffffffffffffffffffffffffffffffff166002600084815260200190815260200160002060009054906101000a900473ffffffffffffffffffffffffffffffffffffffff1673ffffffffffffffffffffffffffffffffffffffff1614159050919050565b600033905090565b816004600083815260200190815260200160002060006101000a81548173ffffffffffffffffffffffffffffffffffffffff021916908373ffffffffffffffffffffffffffffffffffffffff160217905550808273ffffffffffffffffffffffffffffffffffffffff16610e5f836107dd565b73ffffffffffffffffffffffffffffffffffffffff167f8c5be1e5ebec7d5bd14f71427d1e84f3dd0314c0f7b2291e5b200ac8c7c3b92560405160405180910390a45050565b6000610eb082610d78565b610eef576040517f08c379a0000000000000000000000000000000000000000000000000000000008152600401610ee690612a2e565b60405180910390fd5b6000610efa836107dd565b90508073ffffffffffffffffffffffffffffffffffffffff168473ffffffffffffffffffffffffffffffffffffffff161480610f6957508373ffffffffffffffffffffffffffffffffffffffff16610f51846104a0565b73ffffffffffffffffffffffffffffffffffffffff16145b80610f7a5750610f798185610c6a565b5b91505092915050565b8273ffffffffffffffffffffffffffffffffffffffff16610fa3826107dd565b73ffffffffffffffffffffffffffffffffffffffff1614610ff9576040517f08c379a0000000000000000000000000000000000000000000000000000000008152600401610ff090612ac0565b60405180910390fd5b600073ffffffffffffffffffffffffffffffffffffffff168273ffffffffffffffffffffffffffffffffffffffff161415611069576040517f08c379a000000000000000000000000000000000000000000000000000000000815260040161106090612b52565b60405180910390fd5b61107483838361160f565b61107f600082610dec565b6001600360008573ffffffffffffffffffffffffffffffffffffffff1673ffffffffffffffffffffffffffffffffffffffff16815260200190815260200160002060008282546110cf9190612ba1565b925050819055506001600360008473ffffffffffffffffffffffffffffffffffffffff1673ffffffffffffffffffffffffffffffffffffffff16815260200190815260200160002060008282546111269190612bd5565b92505081905550816002600083815260200190815260200160002060006101000a81548173ffffffffffffffffffffffffffffffffffffffff021916908373ffffffffffffffffffffffffffffffffffffffff160217905550808273ffffffffffffffffffffffffffffffffffffffff168473ffffffffffffffffffffffffffffffffffffffff167fddf252ad1be2c89b69c2b068fc378daa952ba7f163c4a11628f55a4df523b3ef60405160405180910390a4505050565b6000600880549050905090565b8173ffffffffffffffffffffffffffffffffffffffff168373ffffffffffffffffffffffffffffffffffffffff16141561125b576040517f08c379a000000000000000000000000000000000000000000000000000000000815260040161125290612c77565b60405180910390fd5b80600560008573ffffffffffffffffffffffffffffffffffffffff1673ffffffffffffffffffffffffffffffffffffffff16815260200190815260200160002060008473ffffffffffffffffffffffffffffffffffffffff1673ffffffffffffffffffffffffffffffffffffffff16815260200190815260200160002060006101000a81548160ff0219169083151502179055508173ffffffffffffffffffffffffffffffffffffffff168373ffffffffffffffffffffffffffffffffffffffff167f17307eab39ab6107e8899845ad3d59bd9653f200f220920489ca2b5937696c318360405161134c9190611d9a565b60405180910390a3505050565b611364848484610f83565b6113708484848461161f565b6113af576040517f08c379a00000000000000000000000000000000000000000000000000000000081526004016113a690612d09565b60405180910390fd5b50505050565b606060405180602001604052806000815250905090565b60606000821415611414576040518060400160405280600181526020017f30000000000000000000000000000000000000000000000000000000000000008152509050611528565b600082905060005b6000821461144657808061142f90612d29565b915050600a8261143f9190612da1565b915061141c565b60008167ffffffffffffffff811115611462576114616120bb565b5b6040519080825280601f01601f1916602001820160405280156114945781602001600182028036833780820191505090505b5090505b60008514611521576001826114ad9190612ba1565b9150600a856114bc9190612dd2565b60306114c89190612bd5565b60f81b8183815181106114de576114dd612760565b5b60200101907effffffffffffffffffffffffffffffffffffffffffffffffffffffffffffff1916908160001a905350600a8561151a9190612da1565b9450611498565b8093505050505b919050565b60007f80ac58cd000000000000000000000000000000000000000000000000000000007bffffffffffffffffffffffffffffffffffffffffffffffffffffffff1916827bffffffffffffffffffffffffffffffffffffffffffffffffffffffff191614806115f857507f5b5e139f000000000000000000000000000000000000000000000000000000007bffffffffffffffffffffffffffffffffffffffffffffffffffffffff1916827bffffffffffffffffffffffffffffffffffffffffffffffffffffffff1916145b806116085750611607826117a7565b5b9050919050565b61161a838383611811565b505050565b60006116408473ffffffffffffffffffffffffffffffffffffffff16611925565b1561179a578373ffffffffffffffffffffffffffffffffffffffff1663150b7a02611669610de4565b8786866040518563ffffffff1660e01b815260040161168b9493929190612e58565b6020604051808303816000875af19250505080156116c757506040513d601f19601f820116820180604052508101906116c49190612eb9565b60015b61174a573d80600081146116f7576040519150601f19603f3d011682016040523d82523d6000602084013e6116fc565b606091505b50600081511415611742576040517f08c379a000000000000000000000000000000000000000000000000000000000815260040161173990612d09565b60405180910390fd5b805181602001fd5b63150b7a0260e01b7bffffffffffffffffffffffffffffffffffffffffffffffffffffffff1916817bffffffffffffffffffffffffffffffffffffffffffffffffffffffff19161491505061179f565b600190505b949350505050565b60007f01ffc9a7000000000000000000000000000000000000000000000000000000007bffffffffffffffffffffffffffffffffffffffffffffffffffffffff1916827bffffffffffffffffffffffffffffffffffffffffffffffffffffffff1916149050919050565b61181c838383611938565b600073ffffffffffffffffffffffffffffffffffffffff168373ffffffffffffffffffffffffffffffffffffffff16141561185f5761185a8161193d565b61189e565b8173ffffffffffffffffffffffffffffffffffffffff168373ffffffffffffffffffffffffffffffffffffffff161461189d5761189c8382611986565b5b5b600073ffffffffffffffffffffffffffffffffffffffff168273ffffffffffffffffffffffffffffffffffffffff1614156118e1576118dc81611af3565b611920565b8273ffffffffffffffffffffffffffffffffffffffff168273ffffffffffffffffffffffffffffffffffffffff161461191f5761191e8282611bc4565b5b5b505050565b600080823b905060008111915050919050565b505050565b6008805490506009600083815260200190815260200160002081905550600881908060018154018082558091505060019003906000526020600020016000909190919091505550565b600060016119938461088f565b61199d9190612ba1565b9050600060076000848152602001908152602001600020549050818114611a82576000600660008673ffffffffffffffffffffffffffffffffffffffff1673ffffffffffffffffffffffffffffffffffffffff168152602001908152602001600020600084815260200190815260200160002054905080600660008773ffffffffffffffffffffffffffffffffffffffff1673ffffffffffffffffffffffffffffffffffffffff168152602001908152602001600020600084815260200190815260200160002081905550816007600083815260200190815260200160002081905550505b6007600084815260200190815260200160002060009055600660008573ffffffffffffffffffffffffffffffffffffffff1673ffffffffffffffffffffffffffffffffffffffff16815260200190815260200160002060008381526020019081526020016000206000905550505050565b60006001600880549050611b079190612ba1565b9050600060096000848152602001908152602001600020549050600060088381548110611b3757611b36612760565b5b906000526020600020015490508060088381548110611b5957611b58612760565b5b906000526020600020018190555081600960008381526020019081526020016000208190555060096000858152602001908152602001600020600090556008805480611ba857611ba7612ee6565b5b6001900381819060005260206000200160009055905550505050565b6000611bcf8361088f565b905081600660008573ffffffffffffffffffffffffffffffffffffffff1673ffffffffffffffffffffffffffffffffffffffff168152602001908152602001600020600083815260200190815260200160002081905550806007600084815260200190815260200160002081905550505050565b828054611c4f906123c2565b90600052602060002090601f016020900481019282611c715760008555611cb8565b82601f10611c8a57805160ff1916838001178555611cb8565b82800160010185558215611cb8579182015b82811115611cb7578251825591602001919060010190611c9c565b5b509050611cc59190611cc9565b5090565b5b80821115611ce2576000816000905550600101611cca565b5090565b6000604051905090565b600080fd5b600080fd5b60007fffffffff0000000000000000000000000000000000000000000000000000000082169050919050565b611d2f81611cfa565b8114611d3a57600080fd5b50565b600081359050611d4c81611d26565b92915050565b600060208284031215611d6857611d67611cf0565b5b6000611d7684828501611d3d565b91505092915050565b60008115159050919050565b611d9481611d7f565b82525050565b6000602082019050611daf6000830184611d8b565b92915050565b6000819050919050565b611dc881611db5565b82525050565b6000602082019050611de36000830184611dbf565b92915050565b600081519050919050565b600082825260208201905092915050565b60005b83811015611e23578082015181840152602081019050611e08565b83811115611e32576000848401525b50505050565b6000601f19601f8301169050919050565b6000611e5482611de9565b611e5e8185611df4565b9350611e6e818560208601611e05565b611e7781611e38565b840191505092915050565b60006020820190508181036000830152611e9c8184611e49565b905092915050565b611ead81611db5565b8114611eb857600080fd5b50565b600081359050611eca81611ea4565b92915050565b600060208284031215611ee657611ee5611cf0565b5b6000611ef484828501611ebb565b91505092915050565b600073ffffffffffffffffffffffffffffffffffffffff82169050919050565b6000611f2882611efd565b9050919050565b611f3881611f1d565b82525050565b6000602082019050611f536000830184611f2f565b92915050565b611f6281611f1d565b8114611f6d57600080fd5b50565b600081359050611f7f81611f59565b92915050565b60008060408385031215611f9c57611f9b611cf0565b5b6000611faa85828601611f70565b9250506020611fbb85828601611ebb565b9150509250929050565b600080600060608486031215611fde57611fdd611cf0565b5b6000611fec86828701611f70565b9350506020611ffd86828701611f70565b925050604061200e86828701611ebb565b9150509250925092565b60006020828403121561202e5761202d611cf0565b5b600061203c84828501611f70565b91505092915050565b61204e81611d7f565b811461205957600080fd5b50565b60008135905061206b81612045565b92915050565b6000806040838503121561208857612087611cf0565b5b600061209685828601611f70565b92505060206120a78582860161205c565b9150509250929050565b600080fd5b600080fd5b7f4e487b7100000000000000000000000000000000000000000000000000000000600052604160045260246000fd5b6120f382611e38565b810181811067ffffffffffffffff82111715612112576121116120bb565b5b80604052505050565b6000612125611ce6565b905061213182826120ea565b919050565b600067ffffffffffffffff821115612151576121506120bb565b5b61215a82611e38565b9050602081019050919050565b82818337600083830152505050565b600061218961218484612136565b61211b565b9050828152602081018484840111156121a5576121a46120b6565b5b6121b0848285612167565b509392505050565b600082601f8301126121cd576121cc6120b1565b5b81356121dd848260208601612176565b91505092915050565b60008060008060808587031215612200576121ff611cf0565b5b600061220e87828801611f70565b945050602061221f87828801611f70565b935050604061223087828801611ebb565b925050606085013567ffffffffffffffff81111561225157612250611cf5565b5b61225d878288016121b8565b91505092959194509250565b600067ffffffffffffffff821115612284576122836120bb565b5b61228d82611e38565b9050602081019050919050565b60006122ad6122a884612269565b61211b565b9050828152602081018484840111156122c9576122c86120b6565b5b6122d4848285612167565b509392505050565b600082601f8301126122f1576122f06120b1565b5b813561230184826020860161229a565b91505092915050565b6000602082840312156123205761231f611cf0565b5b600082013567ffffffffffffffff81111561233e5761233d611cf5565b5b61234a848285016122dc565b91505092915050565b6000806040838503121561236a57612369611cf0565b5b600061237885828601611f70565b925050602061238985828601611f70565b9150509250929050565b7f4e487b7100000000000000000000000000000000000000000000000000000000600052602260045260246000fd5b600060028204905060018216806123da57607f821691505b602082108114156123ee576123ed612393565b5b50919050565b7f4552433732313a20617070726f76656420717565727920666f72206e6f6e657860008201527f697374656e7420746f6b656e0000000000000000000000000000000000000000602082015250565b6000612450602c83611df4565b915061245b826123f4565b604082019050919050565b6000602082019050818103600083015261247f81612443565b9050919050565b7f4552433732313a20617070726f76616c20746f2063757272656e74206f776e6560008201527f7200000000000000000000000000000000000000000000000000000000000000602082015250565b60006124e2602183611df4565b91506124ed82612486565b604082019050919050565b60006020820190508181036000830152612511816124d5565b9050919050565b7f4552433732313a20617070726f76652063616c6c6572206973206e6f74206f7760008201527f6e6572206e6f7220617070726f76656420666f7220616c6c0000000000000000602082015250565b6000612574603883611df4565b915061257f82612518565b604082019050919050565b600060208201905081810360008301526125a381612567565b9050919050565b7f4552433732313a207472616e736665722063616c6c6572206973206e6f74206f60008201527f776e6572206e6f7220617070726f766564000000000000000000000000000000602082015250565b6000612606603183611df4565b9150612611826125aa565b604082019050919050565b60006020820190508181036000830152612635816125f9565b9050919050565b7f455243373231456e756d657261626c653a206f776e657220696e646578206f7560008201527f74206f6620626f756e6473000000000000000000000000000000000000000000602082015250565b6000612698602b83611df4565b91506126a38261263c565b604082019050919050565b600060208201905081810360008301526126c78161268b565b9050919050565b7f455243373231456e756d657261626c653a20676c6f62616c20696e646578206f60008201527f7574206f6620626f756e64730000000000000000000000000000000000000000602082015250565b600061272a602c83611df4565b9150612735826126ce565b604082019050919050565b600060208201905081810360008301526127598161271d565b9050919050565b7f4e487b7100000000000000000000000000000000000000000000000000000000600052603260045260246000fd5b7f4552433732313a206f776e657220717565727920666f72206e6f6e657869737460008201527f656e7420746f6b656e0000000000000000000000000000000000000000000000602082015250565b60006127eb602983611df4565b91506127f68261278f565b604082019050919050565b6000602082019050818103600083015261281a816127de565b9050919050565b7f4552433732313a2062616c616e636520717565727920666f7220746865207a6560008201527f726f206164647265737300000000000000000000000000000000000000000000602082015250565b600061287d602a83611df4565b915061288882612821565b604082019050919050565b600060208201905081810360008301526128ac81612870565b9050919050565b7f4552433732314d657461646174613a2055524920717565727920666f72206e6f60008201527f6e6578697374656e7420746f6b656e0000000000000000000000000000000000602082015250565b600061290f602f83611df4565b915061291a826128b3565b604082019050919050565b6000602082019050818103600083015261293e81612902565b9050919050565b600081905092915050565b600061295b82611de9565b6129658185612945565b9350612975818560208601611e05565b80840191505092915050565b600061298d8285612950565b91506129998284612950565b91508190509392505050565b60006129b18284612950565b915081905092915050565b7f4552433732313a206f70657261746f7220717565727920666f72206e6f6e657860008201527f697374656e7420746f6b656e0000000000000000000000000000000000000000602082015250565b6000612a18602c83611df4565b9150612a23826129bc565b604082019050919050565b60006020820190508181036000830152612a4781612a0b565b9050919050565b7f4552433732313a207472616e73666572206f6620746f6b656e2074686174206960008201527f73206e6f74206f776e0000000000000000000000000000000000000000000000602082015250565b6000612aaa602983611df4565b9150612ab582612a4e565b604082019050919050565b60006020820190508181036000830152612ad981612a9d565b9050919050565b7f4552433732313a207472616e7366657220746f20746865207a65726f2061646460008201527f7265737300000000000000000000000000000000000000000000000000000000602082015250565b6000612b3c602483611df4565b9150612b4782612ae0565b604082019050919050565b60006020820190508181036000830152612b6b81612b2f565b9050919050565b7f4e487b7100000000000000000000000000000000000000000000000000000000600052601160045260246000fd5b6000612bac82611db5565b9150612bb783611db5565b925082821015612bca57612bc9612b72565b5b828203905092915050565b6000612be082611db5565b9150612beb83611db5565b9250827fffffffffffffffffffffffffffffffffffffffffffffffffffffffffffffffff03821115612c2057612c1f612b72565b5b828201905092915050565b7f4552433732313a20617070726f766520746f2063616c6c657200000000000000600082015250565b6000612c61601983611df4565b9150612c6c82612c2b565b602082019050919050565b60006020820190508181036000830152612c9081612c54565b9050919050565b7f4552433732313a207472616e7366657220746f206e6f6e20455243373231526560008201527f63656976657220696d706c656d656e7465720000000000000000000000000000602082015250565b6000612cf3603283611df4565b9150612cfe82612c97565b604082019050919050565b60006020820190508181036000830152612d2281612ce6565b9050919050565b6000612d3482611db5565b91507fffffffffffffffffffffffffffffffffffffffffffffffffffffffffffffffff821415612d6757612d66612b72565b5b600182019050919050565b7f4e487b7100000000000000000000000000000000000000000000000000000000600052601260045260246000fd5b6000612dac82611db5565b9150612db783611db5565b925082612dc757612dc6612d72565b5b828204905092915050565b6000612ddd82611db5565b9150612de883611db5565b925082612df857612df7612d72565b5b828206905092915050565b600081519050919050565b600082825260208201905092915050565b6000612e2a82612e03565b612e348185612e0e565b9350612e44818560208601611e05565b612e4d81611e38565b840191505092915050565b6000608082019050612e6d6000830187611f2f565b612e7a6020830186611f2f565b612e876040830185611dbf565b8181036060830152612e998184612e1f565b905095945050505050565b600081519050612eb381611d26565b92915050565b600060208284031215612ecf57612ece611cf0565b5b6000612edd84828501612ea4565b91505092915050565b7f4e487b7100000000000000000000000000000000000000000000000000000000600052603160045260246000fdfea26469706673582212208ec8cf74f12e5a638952a4337deb7c5dc670b491df3d96ec71e886eea3de842364736f6c634300080b0033",
  "immutableReferences": {},
  "source": "// SPDX-License-Identifier: MIT\r\npragma solidity ^0.8.11;\r\nimport \"@openzeppelin/contracts/token/ERC721/ERC721.sol\";\r\nimport \"@openzeppelin/contracts/token/ERC721/extensions/ERC721Enumerable.sol\";\r\n\r\ncontract Color is ERC721, ERC721Enumerable  {\r\n    string[] public colors; //maybe bytes8 ? for optimization\r\n    uint public _id;\r\n    mapping(string => bool) _colorExists;\r\n\r\n    constructor() public ERC721(\"Color\", \"COLORZ\") {    }\r\n\r\n    function mint(string memory _color) public{\r\n        require(!_colorExists[_color]);\r\n        require(bytes(_color).length == 7);\r\n        colors.push(_color); //mapping may be more efficient\r\n        _id = colors.length;\r\n        _colorExists[_color] = true;\r\n    }\r\n\r\n    //required function overrides for ERC721Enumerable\r\n    function _beforeTokenTransfer(address from, address to, uint256 tokenId)\r\n    internal override(ERC721, ERC721Enumerable){\r\n        super._beforeTokenTransfer(from, to, tokenId);\r\n    }\r\n\r\n    function supportsInterface(bytes4 interfaceId) public view\r\n    override(ERC721, ERC721Enumerable) returns (bool){\r\n        return super.supportsInterface(interfaceId);\r\n    }\r\n\r\n    function totalSupply() public view override returns (uint256) {\r\n      return _id;\r\n    }\r\n\r\n}",
  "sourcePath": "/home/ben/nft-starter/src/contracts/Color.sol",
  "compiler": {
    "name": "solc",
    "version": "0.8.11+commit.d7f03943.Emscripten.clang"
  },
  "schemaVersion": "3.4.4",
  "updatedAt": "2021-12-30T08:16:07.323Z",
  "networkType": "ethereum",
  "devdoc": {
    "kind": "dev",
    "methods": {
      "approve(address,uint256)": {
        "details": "See {IERC721-approve}."
      },
      "balanceOf(address)": {
        "details": "See {IERC721-balanceOf}."
      },
      "getApproved(uint256)": {
        "details": "See {IERC721-getApproved}."
      },
      "isApprovedForAll(address,address)": {
        "details": "See {IERC721-isApprovedForAll}."
      },
      "name()": {
        "details": "See {IERC721Metadata-name}."
      },
      "ownerOf(uint256)": {
        "details": "See {IERC721-ownerOf}."
      },
      "safeTransferFrom(address,address,uint256)": {
        "details": "See {IERC721-safeTransferFrom}."
      },
      "safeTransferFrom(address,address,uint256,bytes)": {
        "details": "See {IERC721-safeTransferFrom}."
      },
      "setApprovalForAll(address,bool)": {
        "details": "See {IERC721-setApprovalForAll}."
      },
      "symbol()": {
        "details": "See {IERC721Metadata-symbol}."
      },
      "tokenByIndex(uint256)": {
        "details": "See {IERC721Enumerable-tokenByIndex}."
      },
      "tokenOfOwnerByIndex(address,uint256)": {
        "details": "See {IERC721Enumerable-tokenOfOwnerByIndex}."
      },
      "tokenURI(uint256)": {
        "details": "See {IERC721Metadata-tokenURI}."
      },
      "totalSupply()": {
        "details": "See {IERC721Enumerable-totalSupply}."
      },
      "transferFrom(address,address,uint256)": {
        "details": "See {IERC721-transferFrom}."
      }
    },
    "version": 1
  },
  "userdoc": {
    "kind": "user",
    "methods": {},
    "version": 1
  }
}